:100000000C9434000C943E000C943E000C943E0082
:100010000C943E000C943E000C943E000C943E0068
:100020000C943E000C943E000C943E000C943E0058
:100030000C943E000C943E000C943E000C943E0048
:100040000C943E000C943E000C943E000C943E0038
:100050000C943E000C943E000C943E000C943E0028
:100060000C943E000C943E0011241FBECFEFD8E04C
:10007000DEBFCDBF0E9440000C9482000C940000B3
:100080008FEF8AB98EEF87B981E088B98BB920E00C
:1000900030E040E851E0309911C08FE39CE90197CE
:1000A000F1F700C00000309BFECF8FE39CE9019781
:1000B000F1F700C000002F5F3F4FEDCFC901817005
:1000C0009078992324F401978E6F9F6F0196019782
:1000D00041F45F9904C08BB1880F8BB909C05BB93B
:1000E00007C0589904C08BB186958BB901C04BB934
:1000F0009FEF63E284EF915060408040E1F700C0E1
:080100000000C9CFF894FFCF05
:00000001FF
